{
  "_format": "hh-sol-artifact-1",
  "contractName": "IncidentLog",
  "sourceName": "contracts/IncidentLog.sol",
  "abi": [
    {
      "anonymous": false,
      "inputs": [
        {
          "indexed": true,
          "internalType": "uint256",
          "name": "id",
          "type": "uint256"
        },
        {
          "indexed": true,
          "internalType": "address",
          "name": "reporter",
          "type": "address"
        },
        {
          "indexed": false,
          "internalType": "uint256",
          "name": "timestamp",
          "type": "uint256"
        },
        {
          "indexed": false,
          "internalType": "string",
          "name": "severity",
          "type": "string"
        }
      ],
      "name": "IncidentLogged",
      "type": "event"
    },
    {
      "inputs": [],
      "name": "count",
      "outputs": [
        {
          "internalType": "uint256",
          "name": "",
          "type": "uint256"
        }
      ],
      "stateMutability": "view",
      "type": "function"
    },
    {
      "inputs": [
        {
          "internalType": "uint256",
          "name": "id",
          "type": "uint256"
        }
      ],
      "name": "getIncident",
      "outputs": [
        {
          "components": [
            {
              "internalType": "address",
              "name": "reporter",
              "type": "address"
            },
            {
              "internalType": "uint256",
              "name": "timestamp",
              "type": "uint256"
            },
            {
              "internalType": "string",
              "name": "details",
              "type": "string"
            },
            {
              "internalType": "string",
              "name": "severity",
              "type": "string"
            },
            {
              "internalType": "string",
              "name": "ipfsHash",
              "type": "string"
            }
          ],
          "internalType": "struct IncidentLog.Incident",
          "name": "",
          "type": "tuple"
        }
      ],
      "stateMutability": "view",
      "type": "function"
    },
    {
      "inputs": [
        {
          "internalType": "uint256",
          "name": "",
          "type": "uint256"
        }
      ],
      "name": "incidents",
      "outputs": [
        {
          "internalType": "address",
          "name": "reporter",
          "type": "address"
        },
        {
          "internalType": "uint256",
          "name": "timestamp",
          "type": "uint256"
        },
        {
          "internalType": "string",
          "name": "details",
          "type": "string"
        },
        {
          "internalType": "string",
          "name": "severity",
          "type": "string"
        },
        {
          "internalType": "string",
          "name": "ipfsHash",
          "type": "string"
        }
      ],
      "stateMutability": "view",
      "type": "function"
    },
    {
      "inputs": [
        {
          "internalType": "string",
          "name": "details",
          "type": "string"
        },
        {
          "internalType": "string",
          "name": "severity",
          "type": "string"
        },
        {
          "internalType": "string",
          "name": "ipfsHash",
          "type": "string"
        }
      ],
      "name": "logIncident",
      "outputs": [
        {
          "internalType": "uint256",
          "name": "",
          "type": "uint256"
        }
      ],
      "stateMutability": "nonpayable",
      "type": "function"
    }
  ],
  "bytecode": "0x608060405234801561001057600080fd5b50611061806100206000396000f3fe608060405234801561001057600080fd5b506004361061004c5760003560e01c806306661abd146100515780639578615e1461006f578063a6c6a8f31461009f578063c78bad2e146100d3575b600080fd5b610059610103565b6040516100669190610774565b60405180910390f35b610089600480360381019061008491906107cf565b61010f565b6040516100969190610960565b60405180910390f35b6100b960048036038101906100b491906107cf565b6103a8565b6040516100ca9594939291906109db565b60405180910390f35b6100ed60048036038101906100e89190610b78565b6105a6565b6040516100fa9190610774565b60405180910390f35b60008080549050905090565b610117610716565b600080549050821061015e576040517f08c379a000000000000000000000000000000000000000000000000000000000815260040161015590610c6b565b60405180910390fd5b6000828154811061017257610171610c8b565b5b90600052602060002090600502016040518060a00160405290816000820160009054906101000a900473ffffffffffffffffffffffffffffffffffffffff1673ffffffffffffffffffffffffffffffffffffffff1673ffffffffffffffffffffffffffffffffffffffff168152602001600182015481526020016002820180546101fb90610ce9565b80601f016020809104026020016040519081016040528092919081815260200182805461022790610ce9565b80156102745780601f1061024957610100808354040283529160200191610274565b820191906000526020600020905b81548152906001019060200180831161025757829003601f168201915b5050505050815260200160038201805461028d90610ce9565b80601f01602080910402602001604051908101604052809291908181526020018280546102b990610ce9565b80156103065780601f106102db57610100808354040283529160200191610306565b820191906000526020600020905b8154815290600101906020018083116102e957829003601f168201915b5050505050815260200160048201805461031f90610ce9565b80601f016020809104026020016040519081016040528092919081815260200182805461034b90610ce9565b80156103985780601f1061036d57610100808354040283529160200191610398565b820191906000526020600020905b81548152906001019060200180831161037b57829003601f168201915b5050505050815250509050919050565b600081815481106103b857600080fd5b90600052602060002090600502016000915090508060000160009054906101000a900473ffffffffffffffffffffffffffffffffffffffff169080600101549080600201805461040790610ce9565b80601f016020809104026020016040519081016040528092919081815260200182805461043390610ce9565b80156104805780601f1061045557610100808354040283529160200191610480565b820191906000526020600020905b81548152906001019060200180831161046357829003601f168201915b50505050509080600301805461049590610ce9565b80601f01602080910402602001604051908101604052809291908181526020018280546104c190610ce9565b801561050e5780601f106104e35761010080835404028352916020019161050e565b820191906000526020600020905b8154815290600101906020018083116104f157829003601f168201915b50505050509080600401805461052390610ce9565b80601f016020809104026020016040519081016040528092919081815260200182805461054f90610ce9565b801561059c5780601f106105715761010080835404028352916020019161059c565b820191906000526020600020905b81548152906001019060200180831161057f57829003601f168201915b5050505050905085565b6000806040518060a001604052803373ffffffffffffffffffffffffffffffffffffffff16815260200142815260200186815260200185815260200184815250908060018154018082558091505060019003906000526020600020906005020160009091909190915060008201518160000160006101000a81548173ffffffffffffffffffffffffffffffffffffffff021916908373ffffffffffffffffffffffffffffffffffffffff1602179055506020820151816001015560408201518160020190816106759190610ec6565b50606082015181600301908161068b9190610ec6565b5060808201518160040190816106a19190610ec6565b505050600060016000805490506106b89190610fc7565b90503373ffffffffffffffffffffffffffffffffffffffff16817f9d2ace14dde459039f6b2b8639212b97549fc04bad2ffc635bf7c8ecf33f69444287604051610703929190610ffb565b60405180910390a3809150509392505050565b6040518060a00160405280600073ffffffffffffffffffffffffffffffffffffffff168152602001600081526020016060815260200160608152602001606081525090565b6000819050919050565b61076e8161075b565b82525050565b60006020820190506107896000830184610765565b92915050565b6000604051905090565b600080fd5b600080fd5b6107ac8161075b565b81146107b757600080fd5b50565b6000813590506107c9816107a3565b92915050565b6000602082840312156107e5576107e4610799565b5b60006107f3848285016107ba565b91505092915050565b600073ffffffffffffffffffffffffffffffffffffffff82169050919050565b6000610827826107fc565b9050919050565b6108378161081c565b82525050565b6108468161075b565b82525050565b600081519050919050565b600082825260208201905092915050565b60005b8381101561088657808201518184015260208101905061086b565b60008484015250505050565b6000601f19601f8301169050919050565b60006108ae8261084c565b6108b88185610857565b93506108c8818560208601610868565b6108d181610892565b840191505092915050565b600060a0830160008301516108f4600086018261082e565b506020830151610907602086018261083d565b506040830151848203604086015261091f82826108a3565b9150506060830151848203606086015261093982826108a3565b9150506080830151848203608086015261095382826108a3565b9150508091505092915050565b6000602082019050818103600083015261097a81846108dc565b905092915050565b61098b8161081c565b82525050565b600082825260208201905092915050565b60006109ad8261084c565b6109b78185610991565b93506109c7818560208601610868565b6109d081610892565b840191505092915050565b600060a0820190506109f06000830188610982565b6109fd6020830187610765565b8181036040830152610a0f81866109a2565b90508181036060830152610a2381856109a2565b90508181036080830152610a3781846109a2565b90509695505050505050565b600080fd5b600080fd5b7f4e487b7100000000000000000000000000000000000000000000000000000000600052604160045260246000fd5b610a8582610892565b810181811067ffffffffffffffff82111715610aa457610aa3610a4d565b5b80604052505050565b6000610ab761078f565b9050610ac38282610a7c565b919050565b600067ffffffffffffffff821115610ae357610ae2610a4d565b5b610aec82610892565b9050602081019050919050565b82818337600083830152505050565b6000610b1b610b1684610ac8565b610aad565b905082815260208101848484011115610b3757610b36610a48565b5b610b42848285610af9565b509392505050565b600082601f830112610b5f57610b5e610a43565b5b8135610b6f848260208601610b08565b91505092915050565b600080600060608486031215610b9157610b90610799565b5b600084013567ffffffffffffffff811115610baf57610bae61079e565b5b610bbb86828701610b4a565b935050602084013567ffffffffffffffff811115610bdc57610bdb61079e565b5b610be886828701610b4a565b925050604084013567ffffffffffffffff811115610c0957610c0861079e565b5b610c1586828701610b4a565b9150509250925092565b7f6f7574206f662072616e67650000000000000000000000000000000000000000600082015250565b6000610c55600c83610991565b9150610c6082610c1f565b602082019050919050565b60006020820190508181036000830152610c8481610c48565b9050919050565b7f4e487b7100000000000000000000000000000000000000000000000000000000600052603260045260246000fd5b7f4e487b7100000000000000000000000000000000000000000000000000000000600052602260045260246000fd5b60006002820490506001821680610d0157607f821691505b602082108103610d1457610d13610cba565b5b50919050565b60008190508160005260206000209050919050565b60006020601f8301049050919050565b600082821b905092915050565b600060088302610d7c7fffffffffffffffffffffffffffffffffffffffffffffffffffffffffffffffff82610d3f565b610d868683610d3f565b95508019841693508086168417925050509392505050565b6000819050919050565b6000610dc3610dbe610db98461075b565b610d9e565b61075b565b9050919050565b6000819050919050565b610ddd83610da8565b610df1610de982610dca565b848454610d4c565b825550505050565b600090565b610e06610df9565b610e11818484610dd4565b505050565b5b81811015610e3557610e2a600082610dfe565b600181019050610e17565b5050565b601f821115610e7a57610e4b81610d1a565b610e5484610d2f565b81016020851015610e63578190505b610e77610e6f85610d2f565b830182610e16565b50505b505050565b600082821c905092915050565b6000610e9d60001984600802610e7f565b1980831691505092915050565b6000610eb68383610e8c565b9150826002028217905092915050565b610ecf8261084c565b67ffffffffffffffff811115610ee857610ee7610a4d565b5b610ef28254610ce9565b610efd828285610e39565b600060209050601f831160018114610f305760008415610f1e578287015190505b610f288582610eaa565b865550610f90565b601f198416610f3e86610d1a565b60005b82811015610f6657848901518255600182019150602085019450602081019050610f41565b86831015610f835784890151610f7f601f891682610e8c565b8355505b6001600288020188555050505b505050505050565b7f4e487b7100000000000000000000000000000000000000000000000000000000600052601160045260246000fd5b6000610fd28261075b565b9150610fdd8361075b565b9250828203905081811115610ff557610ff4610f98565b5b92915050565b60006040820190506110106000830185610765565b818103602083015261102281846109a2565b9050939250505056fea2646970667358221220d0ea7d85a52bf8330a0e433eb30cbe84ba32e6136fb35d276f6af40fcdf967d664736f6c63430008180033",
  "linkReferences": {},
  "deployedLinkReferences": {}
}